{
  "contractName": "LuckyDrawGame",
  "abi": [
    {
      "inputs": [],
      "payable": false,
      "stateMutability": "nonpayable",
      "type": "constructor",
      "signature": "constructor"
    },
    {
      "constant": false,
      "inputs": [
        {
          "name": "bountyRange",
          "type": "uint256"
        },
        {
          "name": "bountyWeiUnits",
          "type": "uint256"
        },
        {
          "name": "durationInMinutes",
          "type": "uint256"
        }
      ],
      "name": "start",
      "outputs": [
        {
          "name": "gameId",
          "type": "address"
        }
      ],
      "payable": true,
      "stateMutability": "payable",
      "type": "function",
      "signature": "0x641ccd83"
    },
    {
      "constant": false,
      "inputs": [
        {
          "name": "gameId",
          "type": "address"
        },
        {
          "name": "luckyNumber",
          "type": "uint256"
        }
      ],
      "name": "draw",
      "outputs": [
        {
          "name": "",
          "type": "uint256"
        }
      ],
      "payable": true,
      "stateMutability": "payable",
      "type": "function",
      "signature": "0x4a03707c"
    },
    {
      "constant": false,
      "inputs": [],
      "name": "end",
      "outputs": [
        {
          "name": "gameBalance",
          "type": "uint256"
        }
      ],
      "payable": true,
      "stateMutability": "payable",
      "type": "function",
      "signature": "0xefbe1c1c"
    },
    {
      "constant": true,
      "inputs": [],
      "name": "getGameIds",
      "outputs": [
        {
          "name": "",
          "type": "address[]"
        }
      ],
      "payable": false,
      "stateMutability": "view",
      "type": "function",
      "signature": "0x9f668bba"
    },
    {
      "constant": true,
      "inputs": [],
      "name": "getGameCount",
      "outputs": [
        {
          "name": "",
          "type": "uint256"
        }
      ],
      "payable": false,
      "stateMutability": "view",
      "type": "function",
      "signature": "0xe87c0ee6"
    },
    {
      "constant": true,
      "inputs": [
        {
          "name": "gameId",
          "type": "address"
        }
      ],
      "name": "getGameInfo",
      "outputs": [
        {
          "name": "isOpen",
          "type": "bool"
        },
        {
          "name": "balance",
          "type": "uint256"
        },
        {
          "name": "endTime",
          "type": "uint256"
        }
      ],
      "payable": false,
      "stateMutability": "view",
      "type": "function",
      "signature": "0x0ea901d2"
    },
    {
      "constant": true,
      "inputs": [
        {
          "name": "gameId",
          "type": "address"
        },
        {
          "name": "player",
          "type": "address"
        }
      ],
      "name": "getPlayerGameInfo",
      "outputs": [
        {
          "name": "isOpen",
          "type": "bool"
        },
        {
          "name": "balance",
          "type": "uint256"
        },
        {
          "name": "endTime",
          "type": "uint256"
        },
        {
          "name": "bountyWon",
          "type": "uint256"
        }
      ],
      "payable": false,
      "stateMutability": "view",
      "type": "function",
      "signature": "0x7c03204d"
    },
    {
      "constant": true,
      "inputs": [
        {
          "name": "player",
          "type": "address"
        }
      ],
      "name": "getPlayerAllGameInfo",
      "outputs": [
        {
          "name": "ids",
          "type": "address[]"
        },
        {
          "name": "maxBounty",
          "type": "uint256[]"
        },
        {
          "name": "endTime",
          "type": "uint256[]"
        },
        {
          "name": "bountyWon",
          "type": "uint256[]"
        }
      ],
      "payable": false,
      "stateMutability": "view",
      "type": "function",
      "signature": "0xaf5a52b9"
    }
  ],
  "bytecode": "0x608060405234801561001057600080fd5b50336000806101000a81548173ffffffffffffffffffffffffffffffffffffffff021916908373ffffffffffffffffffffffffffffffffffffffff1602179055506115bf806100606000396000f3fe60806040526004361061008e576000357c0100000000000000000000000000000000000000000000000000000000900463ffffffff1680630ea901d2146100935780634a03707c1461010a578063641ccd831461016c5780637c03204d146101ee5780639f668bba1461028c578063af5a52b9146102f8578063e87c0ee614610476578063efbe1c1c146104a1575b600080fd5b34801561009f57600080fd5b506100e2600480360360208110156100b657600080fd5b81019080803573ffffffffffffffffffffffffffffffffffffffff1690602001909291905050506104bf565b6040518084151515158152602001838152602001828152602001935050505060405180910390f35b6101566004803603604081101561012057600080fd5b81019080803573ffffffffffffffffffffffffffffffffffffffff169060200190929190803590602001909291905050506105f5565b6040518082815260200191505060405180910390f35b6101ac6004803603606081101561018257600080fd5b81019080803590602001909291908035906020019092919080359060200190929190505050610a1c565b604051808273ffffffffffffffffffffffffffffffffffffffff1673ffffffffffffffffffffffffffffffffffffffff16815260200191505060405180910390f35b3480156101fa57600080fd5b5061025d6004803603604081101561021157600080fd5b81019080803573ffffffffffffffffffffffffffffffffffffffff169060200190929190803573ffffffffffffffffffffffffffffffffffffffff169060200190929190505050610cb8565b604051808515151515815260200184815260200183815260200182815260200194505050505060405180910390f35b34801561029857600080fd5b506102a1610e35565b6040518080602001828103825283818151815260200191508051906020019060200280838360005b838110156102e45780820151818401526020810190506102c9565b505050509050019250505060405180910390f35b34801561030457600080fd5b506103476004803603602081101561031b57600080fd5b81019080803573ffffffffffffffffffffffffffffffffffffffff169060200190929190505050610f87565b6040518080602001806020018060200180602001858103855289818151815260200191508051906020019060200280838360005b8381101561039657808201518184015260208101905061037b565b50505050905001858103845288818151815260200191508051906020019060200280838360005b838110156103d85780820151818401526020810190506103bd565b50505050905001858103835287818151815260200191508051906020019060200280838360005b8381101561041a5780820151818401526020810190506103ff565b50505050905001858103825286818151815260200191508051906020019060200280838360005b8381101561045c578082015181840152602081019050610441565b505050509050019850505050505050505060405180910390f35b34801561048257600080fd5b5061048b6112fc565b6040518082815260200191505060405180910390f35b6104a96113cd565b6040518082815260200191505060405180910390f35b60008060008060009054906101000a900473ffffffffffffffffffffffffffffffffffffffff1673ffffffffffffffffffffffffffffffffffffffff163373ffffffffffffffffffffffffffffffffffffffff16141515610588576040517f08c379a000000000000000000000000000000000000000000000000000000000815260040180806020018281038252601d8152602001807f4e65656420746f206265207468652067616d65206f7267616e697a657200000081525060200191505060405180910390fd5b6000600160008673ffffffffffffffffffffffffffffffffffffffff1673ffffffffffffffffffffffffffffffffffffffff16815260200190815260200160002090508060000160009054906101000a900460ff1681600401548260030154935093509350509193909250565b600082826000600160008473ffffffffffffffffffffffffffffffffffffffff1673ffffffffffffffffffffffffffffffffffffffff16815260200190815260200160002090508060000160009054906101000a900460ff1615156106c2576040517f08c379a00000000000000000000000000000000000000000000000000000000081526004018080602001828103825260118152602001807f47616d65206e6f7420737461727465642e00000000000000000000000000000081525060200191505060405180910390fd5b6000816004015411151561073e576040517f08c379a00000000000000000000000000000000000000000000000000000000081526004018080602001828103825260208152602001807f47616d6520686173206e6f2062616c616e6365206c65667420746f206472617781525060200191505060405180910390fd5b806003015442111515156107ba576040517f08c379a00000000000000000000000000000000000000000000000000000000081526004018080602001828103825260118152602001807f47616d652068617320657870697265642e00000000000000000000000000000081525060200191505060405180910390fd5b60008160050160003373ffffffffffffffffffffffffffffffffffffffff1673ffffffffffffffffffffffffffffffffffffffff16815260200190815260200160002054141515610873576040517f08c379a000000000000000000000000000000000000000000000000000000000815260040180806020018281038252601a8152602001807f506c617965722063616e20706c6179206f6e6c79206f6e63652e00000000000081525060200191505060405180910390fd5b806001015482101515610914576040517f08c379a00000000000000000000000000000000000000000000000000000000081526004018080602001828103825260298152602001807f4c75636b79206e756d626572206e6f742077697468696e20626f756e64732e2081526020017f54727920616761696e000000000000000000000000000000000000000000000081525060400191505060405180910390fd5b6000600160008873ffffffffffffffffffffffffffffffffffffffff1673ffffffffffffffffffffffffffffffffffffffff16815260200190815260200160002090506000816002015461096c888460010154611510565b029050808260040160008282540392505081905550808260050160003373ffffffffffffffffffffffffffffffffffffffff1673ffffffffffffffffffffffffffffffffffffffff168152602001908152602001600020819055503373ffffffffffffffffffffffffffffffffffffffff166108fc829081150290604051600060405180830381858888f19350505050158015610a0d573d6000803e3d6000fd5b50809550505050505092915050565b6000600160003373ffffffffffffffffffffffffffffffffffffffff1673ffffffffffffffffffffffffffffffffffffffff16815260200190815260200160002060000160009054906101000a900460ff16151515610b09576040517f08c379a00000000000000000000000000000000000000000000000000000000081526004018080602001828103825260218152602001807f4f6e6c79206f6e65206f70656e2067616d6520706572206f7267616e697a657281526020017f2e0000000000000000000000000000000000000000000000000000000000000081525060400191505060405180910390fd5b339050600083600a0a600102905080850234111515610b90576040517f08c379a00000000000000000000000000000000000000000000000000000000081526004018080602001828103825260158152602001807f4e6f7420656e6f7567682076616c75652073656e74000000000000000000000081525060200191505060405180910390fd5b60a060405190810160405280600115158152602001868152602001828152602001603c85024201815260200134815250600160008473ffffffffffffffffffffffffffffffffffffffff1673ffffffffffffffffffffffffffffffffffffffff16815260200190815260200160002060008201518160000160006101000a81548160ff0219169083151502179055506020820151816001015560408201518160020155606082015181600301556080820151816004015590505060028290806001815401808255809150509060018203906000526020600020016000909192909190916101000a81548173ffffffffffffffffffffffffffffffffffffffff021916908373ffffffffffffffffffffffffffffffffffffffff16021790555050509392505050565b6000806000806000809054906101000a900473ffffffffffffffffffffffffffffffffffffffff1673ffffffffffffffffffffffffffffffffffffffff163373ffffffffffffffffffffffffffffffffffffffff16141515610d82576040517f08c379a000000000000000000000000000000000000000000000000000000000815260040180806020018281038252601d8152602001807f4e65656420746f206265207468652067616d65206f7267616e697a657200000081525060200191505060405180910390fd5b6000600160008873ffffffffffffffffffffffffffffffffffffffff1673ffffffffffffffffffffffffffffffffffffffff16815260200190815260200160002090508060000160009054906101000a900460ff16816004015482600301548360050160008a73ffffffffffffffffffffffffffffffffffffffff1673ffffffffffffffffffffffffffffffffffffffff1681526020019081526020016000205494509450945094505092959194509250565b60606000809054906101000a900473ffffffffffffffffffffffffffffffffffffffff1673ffffffffffffffffffffffffffffffffffffffff163373ffffffffffffffffffffffffffffffffffffffff16141515610efb576040517f08c379a000000000000000000000000000000000000000000000000000000000815260040180806020018281038252601d8152602001807f4e65656420746f206265207468652067616d65206f7267616e697a657200000081525060200191505060405180910390fd5b6002805480602002602001604051908101604052809291908181526020018280548015610f7d57602002820191906000526020600020905b8160009054906101000a900473ffffffffffffffffffffffffffffffffffffffff1673ffffffffffffffffffffffffffffffffffffffff1681526020019060010190808311610f33575b5050505050905090565b6060806060806000809054906101000a900473ffffffffffffffffffffffffffffffffffffffff1673ffffffffffffffffffffffffffffffffffffffff163373ffffffffffffffffffffffffffffffffffffffff16141515611051576040517f08c379a000000000000000000000000000000000000000000000000000000000815260040180806020018281038252601d8152602001807f4e65656420746f206265207468652067616d65206f7267616e697a657200000081525060200191505060405180910390fd5b6002805490506040519080825280602002602001820160405280156110855781602001602082028038833980820191505090505b5093506002805490506040519080825280602002602001820160405280156110bc5781602001602082028038833980820191505090505b5092506002805490506040519080825280602002602001820160405280156110f35781602001602082028038833980820191505090505b50915060028054905060405190808252806020026020018201604052801561112a5781602001602082028038833980820191505090505b50905060008090505b6002805490508110156112f45760006001600060028481548110151561115557fe5b9060005260206000200160009054906101000a900473ffffffffffffffffffffffffffffffffffffffff1673ffffffffffffffffffffffffffffffffffffffff1673ffffffffffffffffffffffffffffffffffffffff16815260200190815260200160002090506002828154811015156111cb57fe5b9060005260206000200160009054906101000a900473ffffffffffffffffffffffffffffffffffffffff16868381518110151561120457fe5b9060200190602002019073ffffffffffffffffffffffffffffffffffffffff16908173ffffffffffffffffffffffffffffffffffffffff16815250508060020154816001015402858381518110151561125957fe5b90602001906020020181815250508060030154848381518110151561127a57fe5b90602001906020020181815250508060050160008873ffffffffffffffffffffffffffffffffffffffff1673ffffffffffffffffffffffffffffffffffffffff1681526020019081526020016000205483838151811015156112d857fe5b9060200190602002018181525050508080600101915050611133565b509193509193565b60008060009054906101000a900473ffffffffffffffffffffffffffffffffffffffff1673ffffffffffffffffffffffffffffffffffffffff163373ffffffffffffffffffffffffffffffffffffffff161415156113c2576040517f08c379a000000000000000000000000000000000000000000000000000000000815260040180806020018281038252601d8152602001807f4e65656420746f206265207468652067616d65206f7267616e697a657200000081525060200191505060405180910390fd5b600280549050905090565b600080600160003373ffffffffffffffffffffffffffffffffffffffff1673ffffffffffffffffffffffffffffffffffffffff168152602001908152602001600020905080600401549150600082111515611490576040517f08c379a000000000000000000000000000000000000000000000000000000000815260040180806020018281038252601c8152602001807f4e6f2062616c616e6365206f6e2067616d6520746f20636c6f73652e0000000081525060200191505060405180910390fd5b3373ffffffffffffffffffffffffffffffffffffffff166108fc82600401549081150290604051600060405180830381858888f193505050501580156114da573d6000803e3d6000fd5b5060008160000160006101000a81548160ff02191690831515021790555060008160040181905550600081600301819055505090565b6000813384604051602001808373ffffffffffffffffffffffffffffffffffffffff1673ffffffffffffffffffffffffffffffffffffffff166c0100000000000000000000000002815260140182815260200192505050604051602081830303815290604052805190602001206001900481151561158a57fe5b0690509291505056fea165627a7a7230582032cc0005cb7eaa4c5166a254f33f2eec3ce262ea3065ec3dadc81c4a469b738b0029",
  "source": "pragma solidity >=0.4.0 <0.6.0;\n\n/**\n * Author: Raja Ramanathan\n * Lucky draw game. Anyone with account can draw to win weis. \n * Game organizer need to close the game after it ends to claim the remaining balance. \n*/\ncontract LuckyDrawGame {\n\n    address private gameOrganizer; //owner of the LuckyDrawGame contract\n\n    struct Game {\n        bool isOpen;\n        uint bountyRange;  // bounty per draw\n        uint bountyWeis; \n        uint endTime; \n        uint balance; \n        mapping (address => uint) bountyWon; //bounty won by each player\n    }\n\n    mapping (address => Game) private games; //map of gameid to game\n    \n    address[] private gameIds;  //list of games\n\n    constructor() public {\n        gameOrganizer = msg.sender;\n    }\n\n    modifier isGameOrganizer() {\n        require (msg.sender == gameOrganizer,\"Need to be the game organizer\");\n        _;\n    }\n    \n    modifier newGameAllowed() {\n        require (!games[msg.sender].isOpen, \"Only one open game per organizer.\");\n        _;\n    }\n    \n    /**\n     * A player is allowed to draw only when \n     *  game as not expired  and has balance\n     *  player has not drawn before\n    */\n    modifier isDrawAllowed(address gameId,uint luckyNumber) {\n        Game storage game = games[gameId];\n        require (game.isOpen, \"Game not started.\");\n        require (game.balance > 0, \"Game has no balance left to draw\");\n        require (now <= game.endTime, \"Game has expired.\");\n        require (game.bountyWon[msg.sender] == 0 , \"Player can play only once.\");\n        require (luckyNumber < game.bountyRange, \"Lucky number not within bounds. Try again\");\n        _;\n    }\n    \n    /**\n     * CAUTION: PRNG is NOT safe to use for real or large bounties. \n     * Acceptable for demo and very small amounts.\n     * \n    */ \n    function pseudoRandomNumberGenerator(uint luckyNumber,uint bountyRange) private view returns(uint) {\n        return uint(keccak256(abi.encodePacked(msg.sender,luckyNumber))) % bountyRange;\n    }\n\n     /**\n     *  bountyRange: Max range of the bounty 0.._bountyRange\n     *  bountyWeiUnits: Wei units expressed in exponentials of 10. Eg: 12 for Szabo, 9 for shannon \n     *  durationInMinutes: for game to expire from now\n     *\n    */\n    function start (uint bountyRange, uint bountyWeiUnits, uint durationInMinutes) public newGameAllowed payable returns(address gameId) {\n        gameId = msg.sender;\n        uint bountyWeis = 1 * 10**bountyWeiUnits;\n        require(msg.value > bountyRange * bountyWeis,\"Not enough value sent\");\n        games[gameId] = Game(true,bountyRange,bountyWeis,now + durationInMinutes * 1 minutes, msg.value);\n        gameIds.push(gameId);\n    }\n    \n    /**\n     * draw: Player should have enough gas to draw and earn bounty.\n     * gameId: a game is uniquely identified by the address of the game owner.\n    */\n    function draw(address gameId,uint luckyNumber) public isDrawAllowed(gameId,luckyNumber) payable returns (uint){\n        Game storage game = games[gameId];\n        uint bounty = pseudoRandomNumberGenerator(luckyNumber, game.bountyRange) * game.bountyWeis;\n        game.balance -= (bounty);\n        game.bountyWon[msg.sender] = bounty;\n        msg.sender.transfer(bounty);\n        return bounty;\n    }\n    \n    /**\n     * Game organizer can end the game anytime and get refund of the balance \n    */\n    function end() public payable returns (uint gameBalance) {\n        Game storage game = games[msg.sender];\n        gameBalance = game.balance;\n        require (gameBalance > 0, \"No balance on game to close.\");\n        msg.sender.transfer(game.balance);\n        game.isOpen = false;\n        game.balance = 0;\n        game.endTime = 0;\n    }\n\n    /*\n     * returns list of game ids \n    */\n    function getGameIds() external view isGameOrganizer returns(address[] memory){\n        return gameIds;\n    }\n\n    /*\n     * returns number of games \n    */\n    function getGameCount() external view isGameOrganizer returns(uint){\n        return gameIds.length;\n    }\n\n    /*\n     * Fetch details of a game. Allowed only for game organizer\n    */\n    function getGameInfo(address gameId) external view isGameOrganizer returns (bool isOpen,uint balance, uint endTime) {\n        Game storage game = games[gameId];\n        return (game.isOpen, game.balance, game.endTime);\n    }\n\n    /*\n     * Fetch details of game along with players win. Allowed only for game organizer\n    */\n    function getPlayerGameInfo(address gameId,address player) external view isGameOrganizer \n        returns (bool isOpen, uint balance, uint endTime, uint bountyWon) {\n        Game storage game = games[gameId];\n        return (game.isOpen, game.balance, game.endTime, game.bountyWon[player]);\n    }\n\n\n    /*\n     * Fetch details of game along with players win. Allowed only for game organizer\n    */\n    function getPlayerAllGameInfo(address player) external view isGameOrganizer \n        returns (address[] memory ids, uint[] memory maxBounty, uint[] memory endTime, uint[] memory bountyWon) {\n        \n        //initialize\n        ids = new address[](gameIds.length);\n        maxBounty = new uint[](gameIds.length);\n        endTime = new uint[](gameIds.length);\n        bountyWon = new uint[](gameIds.length);\n\n        //populate\n        for (uint i = 0; i < gameIds.length; i++) {\n            Game storage game = games[gameIds[i]];\n            ids[i] = gameIds[i];\n            maxBounty[i] = game.bountyRange * game.bountyWeis;\n            endTime[i] = game.endTime;\n            bountyWon[i] = game.bountyWon[player];\n        }\n    }\n}",
  "sourcePath": "/Users/raja/ws/dev/bc/luckydraw/contracts/LuckyDrawGame.sol",
  "compiler": {
    "name": "solc",
    "version": "0.5.0+commit.1d4f565a.Emscripten.clang"
  },
  "schemaVersion": "3.0.1",
  "updatedAt": "2019-03-10T21:17:02.773Z",
  "devdoc": {
    "methods": {}
  },
  "userdoc": {
    "methods": {
      "draw(address,uint256)": {
        "notice": "draw: Player should have enough gas to draw and earn bounty. gameId: a game is uniquely identified by the address of the game owner."
      },
      "end()": {
        "notice": "Game organizer can end the game anytime and get refund of the balance "
      },
      "start(uint256,uint256,uint256)": {
        "notice": "bountyRange: Max range of the bounty 0.._bountyRange bountyWeiUnits: Wei units expressed in exponentials of 10. Eg: 12 for Szabo, 9 for shannon  durationInMinutes: for game to expire from now    "
      }
    },
    "notice": "Author: Raja Ramanathan Lucky draw game. Anyone with account can draw to win weis.  Game organizer need to close the game after it ends to claim the remaining balance. "
  }
}