{
  "contractName": "LuckyDrawGame",
  "abi": [
    {
      "inputs": [],
      "payable": false,
      "stateMutability": "nonpayable",
      "type": "constructor",
      "signature": "constructor"
    },
    {
      "constant": false,
      "inputs": [
        {
          "name": "bountyRange",
          "type": "uint256"
        },
        {
          "name": "bountyWeiUnits",
          "type": "uint256"
        },
        {
          "name": "durationInMinutes",
          "type": "uint256"
        }
      ],
      "name": "start",
      "outputs": [
        {
          "name": "gameId",
          "type": "address"
        }
      ],
      "payable": true,
      "stateMutability": "payable",
      "type": "function",
      "signature": "0x641ccd83"
    },
    {
      "constant": false,
      "inputs": [
        {
          "name": "gameId",
          "type": "address"
        },
        {
          "name": "luckyNumber",
          "type": "uint256"
        }
      ],
      "name": "draw",
      "outputs": [
        {
          "name": "",
          "type": "uint256"
        }
      ],
      "payable": true,
      "stateMutability": "payable",
      "type": "function",
      "signature": "0x4a03707c"
    },
    {
      "constant": false,
      "inputs": [],
      "name": "end",
      "outputs": [
        {
          "name": "gameBalance",
          "type": "uint256"
        }
      ],
      "payable": true,
      "stateMutability": "payable",
      "type": "function",
      "signature": "0xefbe1c1c"
    },
    {
      "constant": true,
      "inputs": [],
      "name": "getGameIds",
      "outputs": [
        {
          "name": "",
          "type": "address[]"
        }
      ],
      "payable": false,
      "stateMutability": "view",
      "type": "function",
      "signature": "0x9f668bba"
    },
    {
      "constant": true,
      "inputs": [],
      "name": "getGameCount",
      "outputs": [
        {
          "name": "",
          "type": "uint256"
        }
      ],
      "payable": false,
      "stateMutability": "view",
      "type": "function",
      "signature": "0xe87c0ee6"
    },
    {
      "constant": true,
      "inputs": [
        {
          "name": "gameId",
          "type": "address"
        }
      ],
      "name": "getGame",
      "outputs": [
        {
          "name": "isOpen",
          "type": "bool"
        },
        {
          "name": "balance",
          "type": "uint256"
        },
        {
          "name": "endTime",
          "type": "uint256"
        }
      ],
      "payable": false,
      "stateMutability": "view",
      "type": "function",
      "signature": "0x8d1a4b28"
    }
  ],
  "bytecode": "0x608060405234801561001057600080fd5b50336000806101000a81548173ffffffffffffffffffffffffffffffffffffffff021916908373ffffffffffffffffffffffffffffffffffffffff160217905550610e17806100606000396000f3fe608060405260043610610078576000357c0100000000000000000000000000000000000000000000000000000000900463ffffffff1680634a03707c1461007d578063641ccd83146100df5780638d1a4b28146101615780639f668bba146101d8578063e87c0ee614610244578063efbe1c1c1461026f575b600080fd5b6100c96004803603604081101561009357600080fd5b81019080803573ffffffffffffffffffffffffffffffffffffffff1690602001909291908035906020019092919050505061028d565b6040518082815260200191505060405180910390f35b61011f600480360360608110156100f557600080fd5b81019080803590602001909291908035906020019092919080359060200190929190505050610630565b604051808273ffffffffffffffffffffffffffffffffffffffff1673ffffffffffffffffffffffffffffffffffffffff16815260200191505060405180910390f35b34801561016d57600080fd5b506101b06004803603602081101561018457600080fd5b81019080803573ffffffffffffffffffffffffffffffffffffffff1690602001909291905050506108cc565b6040518084151515158152602001838152602001828152602001935050505060405180910390f35b3480156101e457600080fd5b506101ed610a02565b6040518080602001828103825283818151815260200191508051906020019060200280838360005b83811015610230578082015181840152602081019050610215565b505050509050019250505060405180910390f35b34801561025057600080fd5b50610259610b54565b6040518082815260200191505060405180910390f35b610277610c25565b6040518082815260200191505060405180910390f35b6000826000600160008373ffffffffffffffffffffffffffffffffffffffff1673ffffffffffffffffffffffffffffffffffffffff16815260200190815260200160002090508060000160009054906101000a900460ff161515610359576040517f08c379a00000000000000000000000000000000000000000000000000000000081526004018080602001828103825260118152602001807f47616d65206e6f7420737461727465642e00000000000000000000000000000081525060200191505060405180910390fd5b600081600401541115156103d5576040517f08c379a00000000000000000000000000000000000000000000000000000000081526004018080602001828103825260208152602001807f47616d6520686173206e6f2062616c616e6365206c65667420746f206472617781525060200191505060405180910390fd5b80600301544211151515610451576040517f08c379a00000000000000000000000000000000000000000000000000000000081526004018080602001828103825260118152602001807f47616d652068617320657870697265642e00000000000000000000000000000081525060200191505060405180910390fd5b8060050160003373ffffffffffffffffffffffffffffffffffffffff1673ffffffffffffffffffffffffffffffffffffffff16815260200190815260200160002060009054906101000a900460ff16151515610515576040517f08c379a00000000000000000000000000000000000000000000000000000000081526004018080602001828103825260198152602001807f506c617965722072656163686564206d61782074726965732e0000000000000081525060200191505060405180910390fd5b6000600160008773ffffffffffffffffffffffffffffffffffffffff1673ffffffffffffffffffffffffffffffffffffffff16815260200190815260200160002090506000816002015461056d878460010154610d68565b0290503373ffffffffffffffffffffffffffffffffffffffff166108fc829081150290604051600060405180830381858888f193505050501580156105b6573d6000803e3d6000fd5b5080826004016000828254039250508190555060018260050160003373ffffffffffffffffffffffffffffffffffffffff1673ffffffffffffffffffffffffffffffffffffffff16815260200190815260200160002060006101000a81548160ff0219169083151502179055508094505050505092915050565b6000600160003373ffffffffffffffffffffffffffffffffffffffff1673ffffffffffffffffffffffffffffffffffffffff16815260200190815260200160002060000160009054906101000a900460ff1615151561071d576040517f08c379a00000000000000000000000000000000000000000000000000000000081526004018080602001828103825260218152602001807f4f6e6c79206f6e65206f70656e2067616d6520706572206f7267616e697a657281526020017f2e0000000000000000000000000000000000000000000000000000000000000081525060400191505060405180910390fd5b339050600083600a0a6001029050808502341115156107a4576040517f08c379a00000000000000000000000000000000000000000000000000000000081526004018080602001828103825260158152602001807f4e6f7420656e6f7567682076616c75652073656e74000000000000000000000081525060200191505060405180910390fd5b60a060405190810160405280600115158152602001868152602001828152602001603c85024201815260200134815250600160008473ffffffffffffffffffffffffffffffffffffffff1673ffffffffffffffffffffffffffffffffffffffff16815260200190815260200160002060008201518160000160006101000a81548160ff0219169083151502179055506020820151816001015560408201518160020155606082015181600301556080820151816004015590505060028290806001815401808255809150509060018203906000526020600020016000909192909190916101000a81548173ffffffffffffffffffffffffffffffffffffffff021916908373ffffffffffffffffffffffffffffffffffffffff16021790555050509392505050565b60008060008060009054906101000a900473ffffffffffffffffffffffffffffffffffffffff1673ffffffffffffffffffffffffffffffffffffffff163373ffffffffffffffffffffffffffffffffffffffff16141515610995576040517f08c379a000000000000000000000000000000000000000000000000000000000815260040180806020018281038252601d8152602001807f4e65656420746f206265207468652067616d65206f7267616e697a657200000081525060200191505060405180910390fd5b6000600160008673ffffffffffffffffffffffffffffffffffffffff1673ffffffffffffffffffffffffffffffffffffffff16815260200190815260200160002090508060000160009054906101000a900460ff1681600401548260030154935093509350509193909250565b60606000809054906101000a900473ffffffffffffffffffffffffffffffffffffffff1673ffffffffffffffffffffffffffffffffffffffff163373ffffffffffffffffffffffffffffffffffffffff16141515610ac8576040517f08c379a000000000000000000000000000000000000000000000000000000000815260040180806020018281038252601d8152602001807f4e65656420746f206265207468652067616d65206f7267616e697a657200000081525060200191505060405180910390fd5b6002805480602002602001604051908101604052809291908181526020018280548015610b4a57602002820191906000526020600020905b8160009054906101000a900473ffffffffffffffffffffffffffffffffffffffff1673ffffffffffffffffffffffffffffffffffffffff1681526020019060010190808311610b00575b5050505050905090565b60008060009054906101000a900473ffffffffffffffffffffffffffffffffffffffff1673ffffffffffffffffffffffffffffffffffffffff163373ffffffffffffffffffffffffffffffffffffffff16141515610c1a576040517f08c379a000000000000000000000000000000000000000000000000000000000815260040180806020018281038252601d8152602001807f4e65656420746f206265207468652067616d65206f7267616e697a657200000081525060200191505060405180910390fd5b600280549050905090565b600080600160003373ffffffffffffffffffffffffffffffffffffffff1673ffffffffffffffffffffffffffffffffffffffff168152602001908152602001600020905080600401549150600082111515610ce8576040517f08c379a000000000000000000000000000000000000000000000000000000000815260040180806020018281038252601c8152602001807f4e6f2062616c616e6365206f6e2067616d6520746f20636c6f73652e0000000081525060200191505060405180910390fd5b3373ffffffffffffffffffffffffffffffffffffffff166108fc82600401549081150290604051600060405180830381858888f19350505050158015610d32573d6000803e3d6000fd5b5060008160000160006101000a81548160ff02191690831515021790555060008160040181905550600081600301819055505090565b6000813384604051602001808373ffffffffffffffffffffffffffffffffffffffff1673ffffffffffffffffffffffffffffffffffffffff166c01000000000000000000000000028152601401828152602001925050506040516020818303038152906040528051906020012060019004811515610de257fe5b0690509291505056fea165627a7a72305820bf352d7af162cd92bf47604ef15b070f49b8e296ab2cc82fd6d296eb2d8ed15c0029",
  "source": "pragma solidity >=0.4.0 <0.6.0;\n\n/**\n * Author: Raja Ramanathan\n * Lucky draw game. Anyone with account can draw to win weis. \n * Game organizer need to close the game after it ends to claim the remaining balance. \n*/\ncontract LuckyDrawGame {\n\n    address private gameOrganizer; //owner of the LuckyDrawGame contract\n\n    struct Game {\n        bool isOpen;\n        uint bountyRange;  // bounty per draw\n        uint bountyWeis; \n        uint endTime; \n        uint balance; \n        mapping (address => bool) timesPlayed;\n    }\n\n    mapping (address => Game) private games; //map of game owner to game\n    \n    address[] private gameIds;  //list of games\n\n    constructor() public {\n        gameOrganizer = msg.sender;\n    }\n\n    modifier isGameOrganizer() {\n        require (msg.sender == gameOrganizer,\"Need to be the game organizer\");\n        _;\n    }\n    \n    modifier newGameAllowed() {\n        require (!games[msg.sender].isOpen, \"Only one open game per organizer.\");\n        _;\n    }\n    \n    /**\n     * A player is allowed to draw only when \n     *  game as not expired  and has balance\n     *  player has not drawn before\n    */\n    modifier isDrawAllowed(address gameId) {\n        Game storage game = games[gameId];\n        require (game.isOpen, \"Game not started.\");\n        require (game.balance > 0, \"Game has no balance left to draw\");\n        require (now <= game.endTime, \"Game has expired.\");\n        require (!game.timesPlayed[msg.sender], \"Player reached max tries.\");\n        _;\n    }\n    \n    /**\n     * CAUTION: PRNG is NOT safe to use for real or large bounties. \n     * Acceptable for demo and very small amounts.\n     * \n    */ \n    function pseudoRandomNumberGenerator(uint luckyNumber,uint bountyRange) private view returns(uint) {\n        return uint(keccak256(abi.encodePacked(msg.sender,luckyNumber))) % bountyRange;\n    }\n\n     /**\n     *  bountyRange: Max range of the bounty 0.._bountyRange\n     *  bountyWeiUnits: Wei units expressed in exponentials of 10. Eg: 12 for Szabo, 9 for shannon \n     *  durationInMinutes: for game to expire from now\n     *\n    */\n    function start (uint bountyRange, uint bountyWeiUnits, uint durationInMinutes) public newGameAllowed payable returns(address gameId) {\n        gameId = msg.sender;\n        uint bountyWeis = 1 * 10**bountyWeiUnits;\n        require(msg.value > bountyRange * bountyWeis,\"Not enough value sent\");\n        games[gameId] = Game(true,bountyRange,bountyWeis,now + durationInMinutes * 1 minutes, msg.value);\n        gameIds.push(gameId);\n    }\n    \n    /**\n     * draw: Player should have enough gas to draw and earn bounty.\n     * gameId: a game is uniquely identified by the address of the game owner.\n    */\n    function draw(address gameId,uint luckyNumber) public isDrawAllowed(gameId) payable returns (uint){\n        Game storage game = games[gameId];\n        uint bounty = pseudoRandomNumberGenerator(luckyNumber, game.bountyRange) * game.bountyWeis;\n        msg.sender.transfer(bounty);\n        game.balance -= (bounty);\n        game.timesPlayed[msg.sender] = true;\n        return bounty;\n    }\n    \n    /**\n     * Game organizer can end the game anytime and get refund of the balance \n    */\n    function end() public payable returns (uint gameBalance) {\n        Game storage game = games[msg.sender];\n        gameBalance = game.balance;\n        require (gameBalance > 0, \"No balance on game to close.\");\n        msg.sender.transfer(game.balance);\n        game.isOpen = false;\n        game.balance = 0;\n        game.endTime = 0;\n    }\n\n    /*\n     * returns list of game ids \n    */\n    function getGameIds() external view isGameOrganizer returns(address[] memory){\n        return gameIds;\n    }\n\n    /*\n     * returns number of games \n    */\n    function getGameCount() external view isGameOrganizer returns(uint){\n        return gameIds.length;\n    }\n\n    /*\n     * Fetch details of a game. Allowed only for game organizer\n    */\n    function getGame(address gameId) external view isGameOrganizer returns (bool isOpen,uint balance, uint endTime) {\n        Game storage game = games[gameId];\n        return (game.isOpen, game.balance, game.endTime);\n    }\n}",
  "sourcePath": "/Users/raja/ws/dev/bc/luckydraw/contracts/LuckyDrawGame.sol",
  "compiler": {
    "name": "solc",
    "version": "0.5.0+commit.1d4f565a.Emscripten.clang"
  },
  "schemaVersion": "3.0.1",
  "updatedAt": "2019-03-07T18:56:13.240Z",
  "devdoc": {
    "methods": {}
  },
  "userdoc": {
    "methods": {
      "draw(address,uint256)": {
        "notice": "draw: Player should have enough gas to draw and earn bounty. gameId: a game is uniquely identified by the address of the game owner."
      },
      "end()": {
        "notice": "Game organizer can end the game anytime and get refund of the balance "
      },
      "start(uint256,uint256,uint256)": {
        "notice": "bountyRange: Max range of the bounty 0.._bountyRange bountyWeiUnits: Wei units expressed in exponentials of 10. Eg: 12 for Szabo, 9 for shannon  durationInMinutes: for game to expire from now    "
      }
    },
    "notice": "Author: Raja Ramanathan Lucky draw game. Anyone with account can draw to win weis.  Game organizer need to close the game after it ends to claim the remaining balance. "
  }
}